{
  "contractName": "MetadataRegistry",
  "abi": [
    {
      "inputs": [],
      "stateMutability": "nonpayable",
      "type": "constructor"
    },
    {
      "inputs": [
        {
          "internalType": "address",
          "name": "owner",
          "type": "address"
        }
      ],
      "name": "OwnableInvalidOwner",
      "type": "error"
    },
    {
      "inputs": [
        {
          "internalType": "address",
          "name": "account",
          "type": "address"
        }
      ],
      "name": "OwnableUnauthorizedAccount",
      "type": "error"
    },
    {
      "anonymous": false,
      "inputs": [
        {
          "indexed": true,
          "internalType": "uint256",
          "name": "id",
          "type": "uint256"
        },
        {
          "indexed": false,
          "internalType": "string",
          "name": "uri",
          "type": "string"
        }
      ],
      "name": "MetadataUpdated",
      "type": "event"
    },
    {
      "anonymous": false,
      "inputs": [
        {
          "indexed": true,
          "internalType": "address",
          "name": "previousOwner",
          "type": "address"
        },
        {
          "indexed": true,
          "internalType": "address",
          "name": "newOwner",
          "type": "address"
        }
      ],
      "name": "OwnershipTransferred",
      "type": "event"
    },
    {
      "inputs": [],
      "name": "owner",
      "outputs": [
        {
          "internalType": "address",
          "name": "",
          "type": "address"
        }
      ],
      "stateMutability": "view",
      "type": "function",
      "constant": true
    },
    {
      "inputs": [],
      "name": "renounceOwnership",
      "outputs": [],
      "stateMutability": "nonpayable",
      "type": "function"
    },
    {
      "inputs": [
        {
          "internalType": "address",
          "name": "newOwner",
          "type": "address"
        }
      ],
      "name": "transferOwnership",
      "outputs": [],
      "stateMutability": "nonpayable",
      "type": "function"
    },
    {
      "inputs": [
        {
          "internalType": "uint256",
          "name": "id",
          "type": "uint256"
        },
        {
          "internalType": "string",
          "name": "uri_",
          "type": "string"
        }
      ],
      "name": "setURI",
      "outputs": [],
      "stateMutability": "nonpayable",
      "type": "function"
    },
    {
      "inputs": [
        {
          "internalType": "uint256",
          "name": "id",
          "type": "uint256"
        }
      ],
      "name": "uri",
      "outputs": [
        {
          "internalType": "string",
          "name": "",
          "type": "string"
        }
      ],
      "stateMutability": "view",
      "type": "function",
      "constant": true
    }
  ],
  "bytecode": "0x608060405234801561001057600080fd5b5033600073ffffffffffffffffffffffffffffffffffffffff168173ffffffffffffffffffffffffffffffffffffffff16036100845760006040517f1e4fbdf700000000000000000000000000000000000000000000000000000000815260040161007b919061019e565b60405180910390fd5b6100938161009960201b60201c565b506101b9565b60008060009054906101000a900473ffffffffffffffffffffffffffffffffffffffff169050816000806101000a81548173ffffffffffffffffffffffffffffffffffffffff021916908373ffffffffffffffffffffffffffffffffffffffff1602179055508173ffffffffffffffffffffffffffffffffffffffff168173ffffffffffffffffffffffffffffffffffffffff167f8be0079c531659141344cd1fd0a4f28419497f9722a3daafe3b4186f6b6457e060405160405180910390a35050565b600073ffffffffffffffffffffffffffffffffffffffff82169050919050565b60006101888261015d565b9050919050565b6101988161017d565b82525050565b60006020820190506101b3600083018461018f565b92915050565b610a56806101c86000396000f3fe608060405234801561001057600080fd5b50600436106100575760003560e01c80630e89341c1461005c578063715018a61461008c578063862440e2146100965780638da5cb5b146100b2578063f2fde38b146100d0575b600080fd5b61007660048036038101906100719190610451565b6100ec565b604051610083919061050e565b60405180910390f35b610094610191565b005b6100b060048036038101906100ab9190610595565b6101a5565b005b6100ba61020f565b6040516100c79190610636565b60405180910390f35b6100ea60048036038101906100e5919061067d565b610238565b005b606060016000838152602001908152602001600020805461010c906106d9565b80601f0160208091040260200160405190810160405280929190818152602001828054610138906106d9565b80156101855780601f1061015a57610100808354040283529160200191610185565b820191906000526020600020905b81548152906001019060200180831161016857829003601f168201915b50505050509050919050565b6101996102be565b6101a36000610345565b565b6101ad6102be565b81816001600086815260200190815260200160002091826101cf9291906108f0565b50827f459157ba24c7ab9878b165ef465fa6ae2ab42bcd8445f576be378768b0c4730983836040516102029291906109fc565b60405180910390a2505050565b60008060009054906101000a900473ffffffffffffffffffffffffffffffffffffffff16905090565b6102406102be565b600073ffffffffffffffffffffffffffffffffffffffff168173ffffffffffffffffffffffffffffffffffffffff16036102b25760006040517f1e4fbdf70000000000000000000000000000000000000000000000000000000081526004016102a99190610636565b60405180910390fd5b6102bb81610345565b50565b6102c6610409565b73ffffffffffffffffffffffffffffffffffffffff166102e461020f565b73ffffffffffffffffffffffffffffffffffffffff161461034357610307610409565b6040517f118cdaa700000000000000000000000000000000000000000000000000000000815260040161033a9190610636565b60405180910390fd5b565b60008060009054906101000a900473ffffffffffffffffffffffffffffffffffffffff169050816000806101000a81548173ffffffffffffffffffffffffffffffffffffffff021916908373ffffffffffffffffffffffffffffffffffffffff1602179055508173ffffffffffffffffffffffffffffffffffffffff168173ffffffffffffffffffffffffffffffffffffffff167f8be0079c531659141344cd1fd0a4f28419497f9722a3daafe3b4186f6b6457e060405160405180910390a35050565b600033905090565b600080fd5b600080fd5b6000819050919050565b61042e8161041b565b811461043957600080fd5b50565b60008135905061044b81610425565b92915050565b60006020828403121561046757610466610411565b5b60006104758482850161043c565b91505092915050565b600081519050919050565b600082825260208201905092915050565b60005b838110156104b857808201518184015260208101905061049d565b60008484015250505050565b6000601f19601f8301169050919050565b60006104e08261047e565b6104ea8185610489565b93506104fa81856020860161049a565b610503816104c4565b840191505092915050565b6000602082019050818103600083015261052881846104d5565b905092915050565b600080fd5b600080fd5b600080fd5b60008083601f84011261055557610554610530565b5b8235905067ffffffffffffffff81111561057257610571610535565b5b60208301915083600182028301111561058e5761058d61053a565b5b9250929050565b6000806000604084860312156105ae576105ad610411565b5b60006105bc8682870161043c565b935050602084013567ffffffffffffffff8111156105dd576105dc610416565b5b6105e98682870161053f565b92509250509250925092565b600073ffffffffffffffffffffffffffffffffffffffff82169050919050565b6000610620826105f5565b9050919050565b61063081610615565b82525050565b600060208201905061064b6000830184610627565b92915050565b61065a81610615565b811461066557600080fd5b50565b60008135905061067781610651565b92915050565b60006020828403121561069357610692610411565b5b60006106a184828501610668565b91505092915050565b7f4e487b7100000000000000000000000000000000000000000000000000000000600052602260045260246000fd5b600060028204905060018216806106f157607f821691505b602082108103610704576107036106aa565b5b50919050565b600082905092915050565b7f4e487b7100000000000000000000000000000000000000000000000000000000600052604160045260246000fd5b60008190508160005260206000209050919050565b60006020601f8301049050919050565b600082821b905092915050565b6000600883026107a67fffffffffffffffffffffffffffffffffffffffffffffffffffffffffffffffff82610769565b6107b08683610769565b95508019841693508086168417925050509392505050565b6000819050919050565b60006107ed6107e86107e38461041b565b6107c8565b61041b565b9050919050565b6000819050919050565b610807836107d2565b61081b610813826107f4565b848454610776565b825550505050565b600090565b610830610823565b61083b8184846107fe565b505050565b5b8181101561085f57610854600082610828565b600181019050610841565b5050565b601f8211156108a45761087581610744565b61087e84610759565b8101602085101561088d578190505b6108a161089985610759565b830182610840565b50505b505050565b600082821c905092915050565b60006108c7600019846008026108a9565b1980831691505092915050565b60006108e083836108b6565b9150826002028217905092915050565b6108fa838361070a565b67ffffffffffffffff81111561091357610912610715565b5b61091d82546106d9565b610928828285610863565b6000601f8311600181146109575760008415610945578287013590505b61094f85826108d4565b8655506109b7565b601f19841661096586610744565b60005b8281101561098d57848901358255600182019150602085019450602081019050610968565b868310156109aa57848901356109a6601f8916826108b6565b8355505b6001600288020188555050505b50505050505050565b82818337600083830152505050565b60006109db8385610489565b93506109e88385846109c0565b6109f1836104c4565b840190509392505050565b60006020820190508181036000830152610a178184866109cf565b9050939250505056fea264697066735822122033d299ab1d8d493ceb7bd18b86203a04085ca588820b9091088f77a5c9c5cc3d64736f6c63430008140033",
  "immutableReferences": {},
  "source": "// SPDX-License-Identifier: MIT\r\npragma solidity ^0.8.20;\r\n\r\nimport \"@openzeppelin/contracts/access/Ownable.sol\";\r\n\r\ncontract MetadataRegistry is Ownable {\r\n    mapping(uint256 => string) private _uris;\r\n\r\n    event MetadataUpdated(uint256 indexed id, string uri);\r\n\r\n    constructor() Ownable(msg.sender) {}\r\n\r\n    function setURI(uint256 id, string calldata uri_) external onlyOwner {\r\n        _uris[id] = uri_;\r\n        emit MetadataUpdated(id, uri_);\r\n    }\r\n\r\n    function uri(uint256 id) external view returns (string memory) {\r\n        return _uris[id];\r\n    }\r\n}\r\n",
  "sourcePath": "C:\\laragon\\www\\decentralized-game-assets\\truffle\\contracts\\MetadataRegistry.sol",
  "compiler": {
    "name": "solc",
    "version": "0.8.20+commit.a1b79de6.Emscripten.clang"
  },
  "schemaVersion": "3.4.16",
  "updatedAt": "2026-02-15T08:36:26.862Z",
  "networkType": "ethereum",
  "devdoc": {
    "errors": {
      "OwnableInvalidOwner(address)": [
        {
          "details": "The owner is not a valid owner account. (eg. `address(0)`)"
        }
      ],
      "OwnableUnauthorizedAccount(address)": [
        {
          "details": "The caller account is not authorized to perform an operation."
        }
      ]
    },
    "kind": "dev",
    "methods": {
      "owner()": {
        "details": "Returns the address of the current owner."
      },
      "renounceOwnership()": {
        "details": "Leaves the contract without owner. It will not be possible to call `onlyOwner` functions. Can only be called by the current owner. NOTE: Renouncing ownership will leave the contract without an owner, thereby disabling any functionality that is only available to the owner."
      },
      "transferOwnership(address)": {
        "details": "Transfers ownership of the contract to a new account (`newOwner`). Can only be called by the current owner."
      }
    },
    "version": 1
  },
  "userdoc": {
    "kind": "user",
    "methods": {},
    "version": 1
  }
}