{
  "contractName": "GameAsset1155",
  "abi": [
    {
      "inputs": [
        {
          "internalType": "address",
          "name": "registry",
          "type": "address"
        }
      ],
      "stateMutability": "nonpayable",
      "type": "constructor"
    },
    {
      "inputs": [
        {
          "internalType": "address",
          "name": "sender",
          "type": "address"
        },
        {
          "internalType": "uint256",
          "name": "balance",
          "type": "uint256"
        },
        {
          "internalType": "uint256",
          "name": "needed",
          "type": "uint256"
        },
        {
          "internalType": "uint256",
          "name": "tokenId",
          "type": "uint256"
        }
      ],
      "name": "ERC1155InsufficientBalance",
      "type": "error"
    },
    {
      "inputs": [
        {
          "internalType": "address",
          "name": "approver",
          "type": "address"
        }
      ],
      "name": "ERC1155InvalidApprover",
      "type": "error"
    },
    {
      "inputs": [
        {
          "internalType": "uint256",
          "name": "idsLength",
          "type": "uint256"
        },
        {
          "internalType": "uint256",
          "name": "valuesLength",
          "type": "uint256"
        }
      ],
      "name": "ERC1155InvalidArrayLength",
      "type": "error"
    },
    {
      "inputs": [
        {
          "internalType": "address",
          "name": "operator",
          "type": "address"
        }
      ],
      "name": "ERC1155InvalidOperator",
      "type": "error"
    },
    {
      "inputs": [
        {
          "internalType": "address",
          "name": "receiver",
          "type": "address"
        }
      ],
      "name": "ERC1155InvalidReceiver",
      "type": "error"
    },
    {
      "inputs": [
        {
          "internalType": "address",
          "name": "sender",
          "type": "address"
        }
      ],
      "name": "ERC1155InvalidSender",
      "type": "error"
    },
    {
      "inputs": [
        {
          "internalType": "address",
          "name": "operator",
          "type": "address"
        },
        {
          "internalType": "address",
          "name": "owner",
          "type": "address"
        }
      ],
      "name": "ERC1155MissingApprovalForAll",
      "type": "error"
    },
    {
      "inputs": [
        {
          "internalType": "address",
          "name": "owner",
          "type": "address"
        }
      ],
      "name": "OwnableInvalidOwner",
      "type": "error"
    },
    {
      "inputs": [
        {
          "internalType": "address",
          "name": "account",
          "type": "address"
        }
      ],
      "name": "OwnableUnauthorizedAccount",
      "type": "error"
    },
    {
      "anonymous": false,
      "inputs": [
        {
          "indexed": true,
          "internalType": "address",
          "name": "account",
          "type": "address"
        },
        {
          "indexed": true,
          "internalType": "address",
          "name": "operator",
          "type": "address"
        },
        {
          "indexed": false,
          "internalType": "bool",
          "name": "approved",
          "type": "bool"
        }
      ],
      "name": "ApprovalForAll",
      "type": "event"
    },
    {
      "anonymous": false,
      "inputs": [
        {
          "indexed": true,
          "internalType": "address",
          "name": "previousOwner",
          "type": "address"
        },
        {
          "indexed": true,
          "internalType": "address",
          "name": "newOwner",
          "type": "address"
        }
      ],
      "name": "OwnershipTransferred",
      "type": "event"
    },
    {
      "anonymous": false,
      "inputs": [
        {
          "indexed": true,
          "internalType": "address",
          "name": "operator",
          "type": "address"
        },
        {
          "indexed": true,
          "internalType": "address",
          "name": "from",
          "type": "address"
        },
        {
          "indexed": true,
          "internalType": "address",
          "name": "to",
          "type": "address"
        },
        {
          "indexed": false,
          "internalType": "uint256[]",
          "name": "ids",
          "type": "uint256[]"
        },
        {
          "indexed": false,
          "internalType": "uint256[]",
          "name": "values",
          "type": "uint256[]"
        }
      ],
      "name": "TransferBatch",
      "type": "event"
    },
    {
      "anonymous": false,
      "inputs": [
        {
          "indexed": true,
          "internalType": "address",
          "name": "operator",
          "type": "address"
        },
        {
          "indexed": true,
          "internalType": "address",
          "name": "from",
          "type": "address"
        },
        {
          "indexed": true,
          "internalType": "address",
          "name": "to",
          "type": "address"
        },
        {
          "indexed": false,
          "internalType": "uint256",
          "name": "id",
          "type": "uint256"
        },
        {
          "indexed": false,
          "internalType": "uint256",
          "name": "value",
          "type": "uint256"
        }
      ],
      "name": "TransferSingle",
      "type": "event"
    },
    {
      "anonymous": false,
      "inputs": [
        {
          "indexed": false,
          "internalType": "string",
          "name": "value",
          "type": "string"
        },
        {
          "indexed": true,
          "internalType": "uint256",
          "name": "id",
          "type": "uint256"
        }
      ],
      "name": "URI",
      "type": "event"
    },
    {
      "inputs": [
        {
          "internalType": "address",
          "name": "account",
          "type": "address"
        },
        {
          "internalType": "uint256",
          "name": "id",
          "type": "uint256"
        }
      ],
      "name": "balanceOf",
      "outputs": [
        {
          "internalType": "uint256",
          "name": "",
          "type": "uint256"
        }
      ],
      "stateMutability": "view",
      "type": "function",
      "constant": true
    },
    {
      "inputs": [
        {
          "internalType": "address[]",
          "name": "accounts",
          "type": "address[]"
        },
        {
          "internalType": "uint256[]",
          "name": "ids",
          "type": "uint256[]"
        }
      ],
      "name": "balanceOfBatch",
      "outputs": [
        {
          "internalType": "uint256[]",
          "name": "",
          "type": "uint256[]"
        }
      ],
      "stateMutability": "view",
      "type": "function",
      "constant": true
    },
    {
      "inputs": [
        {
          "internalType": "address",
          "name": "account",
          "type": "address"
        },
        {
          "internalType": "address",
          "name": "operator",
          "type": "address"
        }
      ],
      "name": "isApprovedForAll",
      "outputs": [
        {
          "internalType": "bool",
          "name": "",
          "type": "bool"
        }
      ],
      "stateMutability": "view",
      "type": "function",
      "constant": true
    },
    {
      "inputs": [],
      "name": "metadataRegistry",
      "outputs": [
        {
          "internalType": "address",
          "name": "",
          "type": "address"
        }
      ],
      "stateMutability": "view",
      "type": "function",
      "constant": true
    },
    {
      "inputs": [],
      "name": "owner",
      "outputs": [
        {
          "internalType": "address",
          "name": "",
          "type": "address"
        }
      ],
      "stateMutability": "view",
      "type": "function",
      "constant": true
    },
    {
      "inputs": [],
      "name": "renounceOwnership",
      "outputs": [],
      "stateMutability": "nonpayable",
      "type": "function"
    },
    {
      "inputs": [
        {
          "internalType": "address",
          "name": "from",
          "type": "address"
        },
        {
          "internalType": "address",
          "name": "to",
          "type": "address"
        },
        {
          "internalType": "uint256[]",
          "name": "ids",
          "type": "uint256[]"
        },
        {
          "internalType": "uint256[]",
          "name": "values",
          "type": "uint256[]"
        },
        {
          "internalType": "bytes",
          "name": "data",
          "type": "bytes"
        }
      ],
      "name": "safeBatchTransferFrom",
      "outputs": [],
      "stateMutability": "nonpayable",
      "type": "function"
    },
    {
      "inputs": [
        {
          "internalType": "address",
          "name": "from",
          "type": "address"
        },
        {
          "internalType": "address",
          "name": "to",
          "type": "address"
        },
        {
          "internalType": "uint256",
          "name": "id",
          "type": "uint256"
        },
        {
          "internalType": "uint256",
          "name": "value",
          "type": "uint256"
        },
        {
          "internalType": "bytes",
          "name": "data",
          "type": "bytes"
        }
      ],
      "name": "safeTransferFrom",
      "outputs": [],
      "stateMutability": "nonpayable",
      "type": "function"
    },
    {
      "inputs": [
        {
          "internalType": "address",
          "name": "operator",
          "type": "address"
        },
        {
          "internalType": "bool",
          "name": "approved",
          "type": "bool"
        }
      ],
      "name": "setApprovalForAll",
      "outputs": [],
      "stateMutability": "nonpayable",
      "type": "function"
    },
    {
      "inputs": [
        {
          "internalType": "bytes4",
          "name": "interfaceId",
          "type": "bytes4"
        }
      ],
      "name": "supportsInterface",
      "outputs": [
        {
          "internalType": "bool",
          "name": "",
          "type": "bool"
        }
      ],
      "stateMutability": "view",
      "type": "function",
      "constant": true
    },
    {
      "inputs": [
        {
          "internalType": "address",
          "name": "newOwner",
          "type": "address"
        }
      ],
      "name": "transferOwnership",
      "outputs": [],
      "stateMutability": "nonpayable",
      "type": "function"
    },
    {
      "inputs": [
        {
          "internalType": "address",
          "name": "registry",
          "type": "address"
        }
      ],
      "name": "setRegistry",
      "outputs": [],
      "stateMutability": "nonpayable",
      "type": "function"
    },
    {
      "inputs": [
        {
          "internalType": "address",
          "name": "to",
          "type": "address"
        },
        {
          "internalType": "uint256",
          "name": "id",
          "type": "uint256"
        },
        {
          "internalType": "uint256",
          "name": "amount",
          "type": "uint256"
        },
        {
          "internalType": "bytes",
          "name": "data",
          "type": "bytes"
        }
      ],
      "name": "mint",
      "outputs": [],
      "stateMutability": "nonpayable",
      "type": "function"
    },
    {
      "inputs": [
        {
          "internalType": "uint256",
          "name": "id",
          "type": "uint256"
        }
      ],
      "name": "uri",
      "outputs": [
        {
          "internalType": "string",
          "name": "",
          "type": "string"
        }
      ],
      "stateMutability": "view",
      "type": "function",
      "constant": true
    }
  ],
  "bytecode": "0x60806040523480156200001157600080fd5b5060405162002b0638038062002b0683398181016040528101906200003791906200026e565b336040518060200160405280600081525062000059816200012960201b60201c565b50600073ffffffffffffffffffffffffffffffffffffffff168173ffffffffffffffffffffffffffffffffffffffff1603620000cf5760006040517f1e4fbdf7000000000000000000000000000000000000000000000000000000008152600401620000c69190620002b1565b60405180910390fd5b620000e0816200013e60201b60201c565b5080600460006101000a81548173ffffffffffffffffffffffffffffffffffffffff021916908373ffffffffffffffffffffffffffffffffffffffff160217905550506200062f565b80600290816200013a919062000548565b5050565b6000600360009054906101000a900473ffffffffffffffffffffffffffffffffffffffff16905081600360006101000a81548173ffffffffffffffffffffffffffffffffffffffff021916908373ffffffffffffffffffffffffffffffffffffffff1602179055508173ffffffffffffffffffffffffffffffffffffffff168173ffffffffffffffffffffffffffffffffffffffff167f8be0079c531659141344cd1fd0a4f28419497f9722a3daafe3b4186f6b6457e060405160405180910390a35050565b600080fd5b600073ffffffffffffffffffffffffffffffffffffffff82169050919050565b6000620002368262000209565b9050919050565b620002488162000229565b81146200025457600080fd5b50565b60008151905062000268816200023d565b92915050565b60006020828403121562000287576200028662000204565b5b6000620002978482850162000257565b91505092915050565b620002ab8162000229565b82525050565b6000602082019050620002c86000830184620002a0565b92915050565b600081519050919050565b7f4e487b7100000000000000000000000000000000000000000000000000000000600052604160045260246000fd5b7f4e487b7100000000000000000000000000000000000000000000000000000000600052602260045260246000fd5b600060028204905060018216806200035057607f821691505b60208210810362000366576200036562000308565b5b50919050565b60008190508160005260206000209050919050565b60006020601f8301049050919050565b600082821b905092915050565b600060088302620003d07fffffffffffffffffffffffffffffffffffffffffffffffffffffffffffffffff8262000391565b620003dc868362000391565b95508019841693508086168417925050509392505050565b6000819050919050565b6000819050919050565b600062000429620004236200041d84620003f4565b620003fe565b620003f4565b9050919050565b6000819050919050565b620004458362000408565b6200045d620004548262000430565b8484546200039e565b825550505050565b600090565b6200047462000465565b620004818184846200043a565b505050565b5b81811015620004a9576200049d6000826200046a565b60018101905062000487565b5050565b601f821115620004f857620004c2816200036c565b620004cd8462000381565b81016020851015620004dd578190505b620004f5620004ec8562000381565b83018262000486565b50505b505050565b600082821c905092915050565b60006200051d60001984600802620004fd565b1980831691505092915050565b60006200053883836200050a565b9150826002028217905092915050565b6200055382620002ce565b67ffffffffffffffff8111156200056f576200056e620002d9565b5b6200057b825462000337565b62000588828285620004ad565b600060209050601f831160018114620005c05760008415620005ab578287015190505b620005b785826200052a565b86555062000627565b601f198416620005d0866200036c565b60005b82811015620005fa57848901518255600182019150602085019450602081019050620005d3565b868310156200061a578489015162000616601f8916826200050a565b8355505b6001600288020188555050505b505050505050565b6124c7806200063f6000396000f3fe608060405234801561001057600080fd5b50600436106100e95760003560e01c806378e5939d1161008c578063a91ee0dc11610066578063a91ee0dc14610248578063e985e9c514610264578063f242432a14610294578063f2fde38b146102b0576100e9565b806378e5939d146101f05780638da5cb5b1461020e578063a22cb4651461022c576100e9565b80632eb2c2d6116100c85780632eb2c2d61461017e5780634e1273f41461019a578063715018a6146101ca578063731133e9146101d4576100e9565b8062fdd58e146100ee57806301ffc9a71461011e5780630e89341c1461014e575b600080fd5b6101086004803603810190610103919061179e565b6102cc565b60405161011591906117ed565b60405180910390f35b61013860048036038101906101339190611860565b610326565b60405161014591906118a8565b60405180910390f35b610168600480360381019061016391906118c3565b610408565b6040516101759190611980565b60405180910390f35b61019860048036038101906101939190611b9f565b6104b2565b005b6101b460048036038101906101af9190611d31565b61055a565b6040516101c19190611e67565b60405180910390f35b6101d2610669565b005b6101ee60048036038101906101e99190611e89565b61067d565b005b6101f8610697565b6040516102059190611f1b565b60405180910390f35b6102166106bd565b6040516102239190611f1b565b60405180910390f35b61024660048036038101906102419190611f62565b6106e7565b005b610262600480360381019061025d9190611fa2565b6106fd565b005b61027e60048036038101906102799190611fcf565b610749565b60405161028b91906118a8565b60405180910390f35b6102ae60048036038101906102a9919061200f565b6107dd565b005b6102ca60048036038101906102c59190611fa2565b610885565b005b600080600083815260200190815260200160002060008473ffffffffffffffffffffffffffffffffffffffff1673ffffffffffffffffffffffffffffffffffffffff16815260200190815260200160002054905092915050565b60007fd9b67a26000000000000000000000000000000000000000000000000000000007bffffffffffffffffffffffffffffffffffffffffffffffffffffffff1916827bffffffffffffffffffffffffffffffffffffffffffffffffffffffff191614806103f157507f0e89341c000000000000000000000000000000000000000000000000000000007bffffffffffffffffffffffffffffffffffffffffffffffffffffffff1916827bffffffffffffffffffffffffffffffffffffffffffffffffffffffff1916145b8061040157506104008261090b565b5b9050919050565b6060600460009054906101000a900473ffffffffffffffffffffffffffffffffffffffff1673ffffffffffffffffffffffffffffffffffffffff16630e89341c836040518263ffffffff1660e01b815260040161046591906117ed565b600060405180830381865afa158015610482573d6000803e3d6000fd5b505050506040513d6000823e3d601f19601f820116820180604052508101906104ab9190612147565b9050919050565b60006104bc610975565b90508073ffffffffffffffffffffffffffffffffffffffff168673ffffffffffffffffffffffffffffffffffffffff161415801561050157506104ff8682610749565b155b156105455780866040517fe237d92200000000000000000000000000000000000000000000000000000000815260040161053c929190612190565b60405180910390fd5b610552868686868661097d565b505050505050565b606081518351146105a657815183516040517f5b05999100000000000000000000000000000000000000000000000000000000815260040161059d9291906121b9565b60405180910390fd5b6000835167ffffffffffffffff8111156105c3576105c26119a7565b5b6040519080825280602002602001820160405280156105f15781602001602082028036833780820191505090505b50905060005b845181101561065e5761062e6106168287610a7590919063ffffffff16565b6106298387610a8990919063ffffffff16565b6102cc565b828281518110610641576106406121e2565b5b6020026020010181815250508061065790612240565b90506105f7565b508091505092915050565b610671610a9d565b61067b6000610b24565b565b610685610a9d565b61069184848484610bea565b50505050565b600460009054906101000a900473ffffffffffffffffffffffffffffffffffffffff1681565b6000600360009054906101000a900473ffffffffffffffffffffffffffffffffffffffff16905090565b6106f96106f2610975565b8383610c83565b5050565b610705610a9d565b80600460006101000a81548173ffffffffffffffffffffffffffffffffffffffff021916908373ffffffffffffffffffffffffffffffffffffffff16021790555050565b6000600160008473ffffffffffffffffffffffffffffffffffffffff1673ffffffffffffffffffffffffffffffffffffffff16815260200190815260200160002060008373ffffffffffffffffffffffffffffffffffffffff1673ffffffffffffffffffffffffffffffffffffffff16815260200190815260200160002060009054906101000a900460ff16905092915050565b60006107e7610975565b90508073ffffffffffffffffffffffffffffffffffffffff168673ffffffffffffffffffffffffffffffffffffffff161415801561082c575061082a8682610749565b155b156108705780866040517fe237d922000000000000000000000000000000000000000000000000000000008152600401610867929190612190565b60405180910390fd5b61087d8686868686610df3565b505050505050565b61088d610a9d565b600073ffffffffffffffffffffffffffffffffffffffff168173ffffffffffffffffffffffffffffffffffffffff16036108ff5760006040517f1e4fbdf70000000000000000000000000000000000000000000000000000000081526004016108f69190611f1b565b60405180910390fd5b61090881610b24565b50565b60007f01ffc9a7000000000000000000000000000000000000000000000000000000007bffffffffffffffffffffffffffffffffffffffffffffffffffffffff1916827bffffffffffffffffffffffffffffffffffffffffffffffffffffffff1916149050919050565b600033905090565b600073ffffffffffffffffffffffffffffffffffffffff168473ffffffffffffffffffffffffffffffffffffffff16036109ef5760006040517f57f447ce0000000000000000000000000000000000000000000000000000000081526004016109e69190611f1b565b60405180910390fd5b600073ffffffffffffffffffffffffffffffffffffffff168573ffffffffffffffffffffffffffffffffffffffff1603610a615760006040517f01a83514000000000000000000000000000000000000000000000000000000008152600401610a589190611f1b565b60405180910390fd5b610a6e8585858585610efe565b5050505050565b600060208202602084010151905092915050565b600060208202602084010151905092915050565b610aa5610975565b73ffffffffffffffffffffffffffffffffffffffff16610ac36106bd565b73ffffffffffffffffffffffffffffffffffffffff1614610b2257610ae6610975565b6040517f118cdaa7000000000000000000000000000000000000000000000000000000008152600401610b199190611f1b565b60405180910390fd5b565b6000600360009054906101000a900473ffffffffffffffffffffffffffffffffffffffff16905081600360006101000a81548173ffffffffffffffffffffffffffffffffffffffff021916908373ffffffffffffffffffffffffffffffffffffffff1602179055508173ffffffffffffffffffffffffffffffffffffffff168173ffffffffffffffffffffffffffffffffffffffff167f8be0079c531659141344cd1fd0a4f28419497f9722a3daafe3b4186f6b6457e060405160405180910390a35050565b600073ffffffffffffffffffffffffffffffffffffffff168473ffffffffffffffffffffffffffffffffffffffff1603610c5c5760006040517f57f447ce000000000000000000000000000000000000000000000000000000008152600401610c539190611f1b565b60405180910390fd5b600080610c698585610fb0565b91509150610c7b600087848487610efe565b505050505050565b600073ffffffffffffffffffffffffffffffffffffffff168273ffffffffffffffffffffffffffffffffffffffff1603610cf55760006040517fced3e100000000000000000000000000000000000000000000000000000000008152600401610cec9190611f1b565b60405180910390fd5b80600160008573ffffffffffffffffffffffffffffffffffffffff1673ffffffffffffffffffffffffffffffffffffffff16815260200190815260200160002060008473ffffffffffffffffffffffffffffffffffffffff1673ffffffffffffffffffffffffffffffffffffffff16815260200190815260200160002060006101000a81548160ff0219169083151502179055508173ffffffffffffffffffffffffffffffffffffffff168373ffffffffffffffffffffffffffffffffffffffff167f17307eab39ab6107e8899845ad3d59bd9653f200f220920489ca2b5937696c3183604051610de691906118a8565b60405180910390a3505050565b600073ffffffffffffffffffffffffffffffffffffffff168473ffffffffffffffffffffffffffffffffffffffff1603610e655760006040517f57f447ce000000000000000000000000000000000000000000000000000000008152600401610e5c9190611f1b565b60405180910390fd5b600073ffffffffffffffffffffffffffffffffffffffff168573ffffffffffffffffffffffffffffffffffffffff1603610ed75760006040517f01a83514000000000000000000000000000000000000000000000000000000008152600401610ece9190611f1b565b60405180910390fd5b600080610ee48585610fb0565b91509150610ef58787848487610efe565b50505050505050565b610f0a85858585610fe0565b600073ffffffffffffffffffffffffffffffffffffffff168473ffffffffffffffffffffffffffffffffffffffff1614610fa9576000610f48610975565b90506001845103610f98576000610f69600086610a8990919063ffffffff16565b90506000610f81600086610a8990919063ffffffff16565b9050610f9183898985858961138e565b5050610fa7565b610fa6818787878787611542565b5b505b5050505050565b60608060405191506001825283602083015260408201905060018152826020820152604081016040529250929050565b805182511461102a57815181516040517f5b0599910000000000000000000000000000000000000000000000000000000081526004016110219291906121b9565b60405180910390fd5b6000611034610975565b905060005b83518110156112495760006110578286610a8990919063ffffffff16565b9050600061106e8386610a8990919063ffffffff16565b9050600073ffffffffffffffffffffffffffffffffffffffff168873ffffffffffffffffffffffffffffffffffffffff161461119b57600080600084815260200190815260200160002060008a73ffffffffffffffffffffffffffffffffffffffff1673ffffffffffffffffffffffffffffffffffffffff1681526020019081526020016000205490508181101561114357888183856040517f03dee4c500000000000000000000000000000000000000000000000000000000815260040161113a9493929190612288565b60405180910390fd5b81810360008085815260200190815260200160002060008b73ffffffffffffffffffffffffffffffffffffffff1673ffffffffffffffffffffffffffffffffffffffff16815260200190815260200160002081905550505b600073ffffffffffffffffffffffffffffffffffffffff168773ffffffffffffffffffffffffffffffffffffffff1614611236578060008084815260200190815260200160002060008973ffffffffffffffffffffffffffffffffffffffff1673ffffffffffffffffffffffffffffffffffffffff168152602001908152602001600020600082825461122e91906122cd565b925050819055505b50508061124290612240565b9050611039565b506001835103611308576000611269600085610a8990919063ffffffff16565b90506000611281600085610a8990919063ffffffff16565b90508573ffffffffffffffffffffffffffffffffffffffff168773ffffffffffffffffffffffffffffffffffffffff168473ffffffffffffffffffffffffffffffffffffffff167fc3d58168c5ae7397731d063d5bbf3d657854427343f4c083240f7aacaa2d0f6285856040516112f99291906121b9565b60405180910390a45050611387565b8373ffffffffffffffffffffffffffffffffffffffff168573ffffffffffffffffffffffffffffffffffffffff168273ffffffffffffffffffffffffffffffffffffffff167f4a39dc06d4c0dbc64b70af90fd698a233a518aa5d07e595d983b8c0526c8f7fb868660405161137e929190612301565b60405180910390a45b5050505050565b60008473ffffffffffffffffffffffffffffffffffffffff163b111561153a578373ffffffffffffffffffffffffffffffffffffffff1663f23a6e6187878686866040518663ffffffff1660e01b81526004016113ef95949392919061238d565b6020604051808303816000875af192505050801561142b57506040513d601f19601f8201168201806040525081019061142891906123fc565b60015b6114af573d806000811461145b576040519150601f19603f3d011682016040523d82523d6000602084013e611460565b606091505b5060008151036114a757846040517f57f447ce00000000000000000000000000000000000000000000000000000000815260040161149e9190611f1b565b60405180910390fd5b805160208201fd5b63f23a6e6160e01b7bffffffffffffffffffffffffffffffffffffffffffffffffffffffff1916817bffffffffffffffffffffffffffffffffffffffffffffffffffffffff19161461153857846040517f57f447ce00000000000000000000000000000000000000000000000000000000815260040161152f9190611f1b565b60405180910390fd5b505b505050505050565b60008473ffffffffffffffffffffffffffffffffffffffff163b11156116ee578373ffffffffffffffffffffffffffffffffffffffff1663bc197c8187878686866040518663ffffffff1660e01b81526004016115a3959493929190612429565b6020604051808303816000875af19250505080156115df57506040513d601f19601f820116820180604052508101906115dc91906123fc565b60015b611663573d806000811461160f576040519150601f19603f3d011682016040523d82523d6000602084013e611614565b606091505b50600081510361165b57846040517f57f447ce0000000000000000000000000000000000000000000000000000000081526004016116529190611f1b565b60405180910390fd5b805160208201fd5b63bc197c8160e01b7bffffffffffffffffffffffffffffffffffffffffffffffffffffffff1916817bffffffffffffffffffffffffffffffffffffffffffffffffffffffff1916146116ec57846040517f57f447ce0000000000000000000000000000000000000000000000000000000081526004016116e39190611f1b565b60405180910390fd5b505b505050505050565b6000604051905090565b600080fd5b600080fd5b600073ffffffffffffffffffffffffffffffffffffffff82169050919050565b60006117358261170a565b9050919050565b6117458161172a565b811461175057600080fd5b50565b6000813590506117628161173c565b92915050565b6000819050919050565b61177b81611768565b811461178657600080fd5b50565b60008135905061179881611772565b92915050565b600080604083850312156117b5576117b4611700565b5b60006117c385828601611753565b92505060206117d485828601611789565b9150509250929050565b6117e781611768565b82525050565b600060208201905061180260008301846117de565b92915050565b60007fffffffff0000000000000000000000000000000000000000000000000000000082169050919050565b61183d81611808565b811461184857600080fd5b50565b60008135905061185a81611834565b92915050565b60006020828403121561187657611875611700565b5b60006118848482850161184b565b91505092915050565b60008115159050919050565b6118a28161188d565b82525050565b60006020820190506118bd6000830184611899565b92915050565b6000602082840312156118d9576118d8611700565b5b60006118e784828501611789565b91505092915050565b600081519050919050565b600082825260208201905092915050565b60005b8381101561192a57808201518184015260208101905061190f565b60008484015250505050565b6000601f19601f8301169050919050565b6000611952826118f0565b61195c81856118fb565b935061196c81856020860161190c565b61197581611936565b840191505092915050565b6000602082019050818103600083015261199a8184611947565b905092915050565b600080fd5b7f4e487b7100000000000000000000000000000000000000000000000000000000600052604160045260246000fd5b6119df82611936565b810181811067ffffffffffffffff821117156119fe576119fd6119a7565b5b80604052505050565b6000611a116116f6565b9050611a1d82826119d6565b919050565b600067ffffffffffffffff821115611a3d57611a3c6119a7565b5b602082029050602081019050919050565b600080fd5b6000611a66611a6184611a22565b611a07565b90508083825260208201905060208402830185811115611a8957611a88611a4e565b5b835b81811015611ab25780611a9e8882611789565b845260208401935050602081019050611a8b565b5050509392505050565b600082601f830112611ad157611ad06119a2565b5b8135611ae1848260208601611a53565b91505092915050565b600080fd5b600067ffffffffffffffff821115611b0a57611b096119a7565b5b611b1382611936565b9050602081019050919050565b82818337600083830152505050565b6000611b42611b3d84611aef565b611a07565b905082815260208101848484011115611b5e57611b5d611aea565b5b611b69848285611b20565b509392505050565b600082601f830112611b8657611b856119a2565b5b8135611b96848260208601611b2f565b91505092915050565b600080600080600060a08688031215611bbb57611bba611700565b5b6000611bc988828901611753565b9550506020611bda88828901611753565b945050604086013567ffffffffffffffff811115611bfb57611bfa611705565b5b611c0788828901611abc565b935050606086013567ffffffffffffffff811115611c2857611c27611705565b5b611c3488828901611abc565b925050608086013567ffffffffffffffff811115611c5557611c54611705565b5b611c6188828901611b71565b9150509295509295909350565b600067ffffffffffffffff821115611c8957611c886119a7565b5b602082029050602081019050919050565b6000611cad611ca884611c6e565b611a07565b90508083825260208201905060208402830185811115611cd057611ccf611a4e565b5b835b81811015611cf95780611ce58882611753565b845260208401935050602081019050611cd2565b5050509392505050565b600082601f830112611d1857611d176119a2565b5b8135611d28848260208601611c9a565b91505092915050565b60008060408385031215611d4857611d47611700565b5b600083013567ffffffffffffffff811115611d6657611d65611705565b5b611d7285828601611d03565b925050602083013567ffffffffffffffff811115611d9357611d92611705565b5b611d9f85828601611abc565b9150509250929050565b600081519050919050565b600082825260208201905092915050565b6000819050602082019050919050565b611dde81611768565b82525050565b6000611df08383611dd5565b60208301905092915050565b6000602082019050919050565b6000611e1482611da9565b611e1e8185611db4565b9350611e2983611dc5565b8060005b83811015611e5a578151611e418882611de4565b9750611e4c83611dfc565b925050600181019050611e2d565b5085935050505092915050565b60006020820190508181036000830152611e818184611e09565b905092915050565b60008060008060808587031215611ea357611ea2611700565b5b6000611eb187828801611753565b9450506020611ec287828801611789565b9350506040611ed387828801611789565b925050606085013567ffffffffffffffff811115611ef457611ef3611705565b5b611f0087828801611b71565b91505092959194509250565b611f158161172a565b82525050565b6000602082019050611f306000830184611f0c565b92915050565b611f3f8161188d565b8114611f4a57600080fd5b50565b600081359050611f5c81611f36565b92915050565b60008060408385031215611f7957611f78611700565b5b6000611f8785828601611753565b9250506020611f9885828601611f4d565b9150509250929050565b600060208284031215611fb857611fb7611700565b5b6000611fc684828501611753565b91505092915050565b60008060408385031215611fe657611fe5611700565b5b6000611ff485828601611753565b925050602061200585828601611753565b9150509250929050565b600080600080600060a0868803121561202b5761202a611700565b5b600061203988828901611753565b955050602061204a88828901611753565b945050604061205b88828901611789565b935050606061206c88828901611789565b925050608086013567ffffffffffffffff81111561208d5761208c611705565b5b61209988828901611b71565b9150509295509295909350565b600067ffffffffffffffff8211156120c1576120c06119a7565b5b6120ca82611936565b9050602081019050919050565b60006120ea6120e5846120a6565b611a07565b90508281526020810184848401111561210657612105611aea565b5b61211184828561190c565b509392505050565b600082601f83011261212e5761212d6119a2565b5b815161213e8482602086016120d7565b91505092915050565b60006020828403121561215d5761215c611700565b5b600082015167ffffffffffffffff81111561217b5761217a611705565b5b61218784828501612119565b91505092915050565b60006040820190506121a56000830185611f0c565b6121b26020830184611f0c565b9392505050565b60006040820190506121ce60008301856117de565b6121db60208301846117de565b9392505050565b7f4e487b7100000000000000000000000000000000000000000000000000000000600052603260045260246000fd5b7f4e487b7100000000000000000000000000000000000000000000000000000000600052601160045260246000fd5b600061224b82611768565b91507fffffffffffffffffffffffffffffffffffffffffffffffffffffffffffffffff820361227d5761227c612211565b5b600182019050919050565b600060808201905061229d6000830187611f0c565b6122aa60208301866117de565b6122b760408301856117de565b6122c460608301846117de565b95945050505050565b60006122d882611768565b91506122e383611768565b92508282019050808211156122fb576122fa612211565b5b92915050565b6000604082019050818103600083015261231b8185611e09565b9050818103602083015261232f8184611e09565b90509392505050565b600081519050919050565b600082825260208201905092915050565b600061235f82612338565b6123698185612343565b935061237981856020860161190c565b61238281611936565b840191505092915050565b600060a0820190506123a26000830188611f0c565b6123af6020830187611f0c565b6123bc60408301866117de565b6123c960608301856117de565b81810360808301526123db8184612354565b90509695505050505050565b6000815190506123f681611834565b92915050565b60006020828403121561241257612411611700565b5b6000612420848285016123e7565b91505092915050565b600060a08201905061243e6000830188611f0c565b61244b6020830187611f0c565b818103604083015261245d8186611e09565b905081810360608301526124718185611e09565b905081810360808301526124858184612354565b9050969550505050505056fea264697066735822122098e2b8d2c76a820e50483d40753227cf9ca221bf605bb9f562f9e142f45a1c9d64736f6c63430008140033",
  "immutableReferences": {},
  "source": "// SPDX-License-Identifier: MIT\r\npragma solidity ^0.8.20;\r\n\r\nimport \"@openzeppelin/contracts/token/ERC1155/ERC1155.sol\";\r\nimport \"@openzeppelin/contracts/access/Ownable.sol\";\r\n\r\ninterface IMetadataRegistry {\r\n    function uri(uint256 id) external view returns (string memory);\r\n}\r\n\r\ncontract GameAsset1155 is ERC1155, Ownable {\r\n    address public metadataRegistry;\r\n\r\n    constructor(address registry) ERC1155(\"\") Ownable(msg.sender) {\r\n        metadataRegistry = registry;\r\n    }\r\n\r\n    function setRegistry(address registry) external onlyOwner {\r\n        metadataRegistry = registry;\r\n    }\r\n\r\n    function mint(address to, uint256 id, uint256 amount, bytes memory data) external onlyOwner {\r\n        _mint(to, id, amount, data);\r\n    }\r\n\r\n    function uri(uint256 id) public view override returns (string memory) {\r\n        return IMetadataRegistry(metadataRegistry).uri(id);\r\n    }\r\n}\r\n",
  "sourcePath": "C:\\laragon\\www\\decentralized-game-assets\\truffle\\contracts\\GameAsset1155.sol",
  "compiler": {
    "name": "solc",
    "version": "0.8.20+commit.a1b79de6.Emscripten.clang"
  },
  "schemaVersion": "3.4.16",
  "updatedAt": "2026-01-27T07:00:18.064Z",
  "networkType": "ethereum",
  "devdoc": {
    "errors": {
      "ERC1155InsufficientBalance(address,uint256,uint256,uint256)": [
        {
          "details": "Indicates an error related to the current `balance` of a `sender`. Used in transfers.",
          "params": {
            "balance": "Current balance for the interacting account.",
            "needed": "Minimum amount required to perform a transfer.",
            "sender": "Address whose tokens are being transferred.",
            "tokenId": "Identifier number of a token."
          }
        }
      ],
      "ERC1155InvalidApprover(address)": [
        {
          "details": "Indicates a failure with the `approver` of a token to be approved. Used in approvals.",
          "params": {
            "approver": "Address initiating an approval operation."
          }
        }
      ],
      "ERC1155InvalidArrayLength(uint256,uint256)": [
        {
          "details": "Indicates an array length mismatch between ids and values in a safeBatchTransferFrom operation. Used in batch transfers.",
          "params": {
            "idsLength": "Length of the array of token identifiers",
            "valuesLength": "Length of the array of token amounts"
          }
        }
      ],
      "ERC1155InvalidOperator(address)": [
        {
          "details": "Indicates a failure with the `operator` to be approved. Used in approvals.",
          "params": {
            "operator": "Address that may be allowed to operate on tokens without being their owner."
          }
        }
      ],
      "ERC1155InvalidReceiver(address)": [
        {
          "details": "Indicates a failure with the token `receiver`. Used in transfers.",
          "params": {
            "receiver": "Address to which tokens are being transferred."
          }
        }
      ],
      "ERC1155InvalidSender(address)": [
        {
          "details": "Indicates a failure with the token `sender`. Used in transfers.",
          "params": {
            "sender": "Address whose tokens are being transferred."
          }
        }
      ],
      "ERC1155MissingApprovalForAll(address,address)": [
        {
          "details": "Indicates a failure with the `operator`s approval. Used in transfers.",
          "params": {
            "operator": "Address that may be allowed to operate on tokens without being their owner.",
            "owner": "Address of the current owner of a token."
          }
        }
      ],
      "OwnableInvalidOwner(address)": [
        {
          "details": "The owner is not a valid owner account. (eg. `address(0)`)"
        }
      ],
      "OwnableUnauthorizedAccount(address)": [
        {
          "details": "The caller account is not authorized to perform an operation."
        }
      ]
    },
    "events": {
      "ApprovalForAll(address,address,bool)": {
        "details": "Emitted when `account` grants or revokes permission to `operator` to transfer their tokens, according to `approved`."
      },
      "TransferBatch(address,address,address,uint256[],uint256[])": {
        "details": "Equivalent to multiple {TransferSingle} events, where `operator`, `from` and `to` are the same for all transfers."
      },
      "TransferSingle(address,address,address,uint256,uint256)": {
        "details": "Emitted when `value` amount of tokens of type `id` are transferred from `from` to `to` by `operator`."
      },
      "URI(string,uint256)": {
        "details": "Emitted when the URI for token type `id` changes to `value`, if it is a non-programmatic URI. If an {URI} event was emitted for `id`, the standard https://eips.ethereum.org/EIPS/eip-1155#metadata-extensions[guarantees] that `value` will equal the value returned by {IERC1155MetadataURI-uri}."
      }
    },
    "kind": "dev",
    "methods": {
      "balanceOf(address,uint256)": {
        "details": "Returns the value of tokens of token type `id` owned by `account`."
      },
      "balanceOfBatch(address[],uint256[])": {
        "details": "See {IERC1155-balanceOfBatch}. Requirements: - `accounts` and `ids` must have the same length."
      },
      "isApprovedForAll(address,address)": {
        "details": "Returns true if `operator` is approved to transfer ``account``'s tokens. See {setApprovalForAll}."
      },
      "owner()": {
        "details": "Returns the address of the current owner."
      },
      "renounceOwnership()": {
        "details": "Leaves the contract without owner. It will not be possible to call `onlyOwner` functions. Can only be called by the current owner. NOTE: Renouncing ownership will leave the contract without an owner, thereby disabling any functionality that is only available to the owner."
      },
      "safeBatchTransferFrom(address,address,uint256[],uint256[],bytes)": {
        "details": "xref:ROOT:erc1155.adoc#batch-operations[Batched] version of {safeTransferFrom}. WARNING: This function can potentially allow a reentrancy attack when transferring tokens to an untrusted contract, when invoking {IERC1155Receiver-onERC1155BatchReceived} on the receiver. Ensure to follow the checks-effects-interactions pattern and consider employing reentrancy guards when interacting with untrusted contracts. Emits either a {TransferSingle} or a {TransferBatch} event, depending on the length of the array arguments. Requirements: - `ids` and `values` must have the same length. - If `to` refers to a smart contract, it must implement {IERC1155Receiver-onERC1155BatchReceived} and return the acceptance magic value."
      },
      "safeTransferFrom(address,address,uint256,uint256,bytes)": {
        "details": "Transfers a `value` amount of tokens of type `id` from `from` to `to`. WARNING: This function can potentially allow a reentrancy attack when transferring tokens to an untrusted contract, when invoking {IERC1155Receiver-onERC1155Received} on the receiver. Ensure to follow the checks-effects-interactions pattern and consider employing reentrancy guards when interacting with untrusted contracts. Emits a {TransferSingle} event. Requirements: - `to` cannot be the zero address. - If the caller is not `from`, it must have been approved to spend ``from``'s tokens via {setApprovalForAll}. - `from` must have a balance of tokens of type `id` of at least `value` amount. - If `to` refers to a smart contract, it must implement {IERC1155Receiver-onERC1155Received} and return the acceptance magic value."
      },
      "setApprovalForAll(address,bool)": {
        "details": "Grants or revokes permission to `operator` to transfer the caller's tokens, according to `approved`, Emits an {ApprovalForAll} event. Requirements: - `operator` cannot be the zero address."
      },
      "supportsInterface(bytes4)": {
        "details": "Returns true if this contract implements the interface defined by `interfaceId`. See the corresponding https://eips.ethereum.org/EIPS/eip-165#how-interfaces-are-identified[ERC section] to learn more about how these ids are created. This function call must use less than 30 000 gas."
      },
      "transferOwnership(address)": {
        "details": "Transfers ownership of the contract to a new account (`newOwner`). Can only be called by the current owner."
      }
    },
    "version": 1
  },
  "userdoc": {
    "kind": "user",
    "methods": {},
    "version": 1
  }
}